{
  "contractName": "GolDarah",
  "abi": [
    {
      "anonymous": false,
      "inputs": [
        {
          "indexed": true,
          "internalType": "address",
          "name": "sender",
          "type": "address"
        },
        {
          "indexed": false,
          "internalType": "string",
          "name": "name",
          "type": "string"
        },
        {
          "indexed": false,
          "internalType": "string",
          "name": "phone",
          "type": "string"
        },
        {
          "indexed": false,
          "internalType": "string",
          "name": "bloodType",
          "type": "string"
        }
      ],
      "name": "GolonganDarahAdded",
      "type": "event"
    },
    {
      "inputs": [
        {
          "internalType": "uint256",
          "name": "",
          "type": "uint256"
        }
      ],
      "name": "golonganDarahRecords",
      "outputs": [
        {
          "internalType": "address",
          "name": "sender",
          "type": "address"
        },
        {
          "internalType": "string",
          "name": "name",
          "type": "string"
        },
        {
          "internalType": "string",
          "name": "phone",
          "type": "string"
        },
        {
          "internalType": "string",
          "name": "bloodType",
          "type": "string"
        }
      ],
      "stateMutability": "view",
      "type": "function"
    },
    {
      "inputs": [
        {
          "internalType": "string",
          "name": "_name",
          "type": "string"
        },
        {
          "internalType": "string",
          "name": "_phone",
          "type": "string"
        },
        {
          "internalType": "string",
          "name": "_bloodType",
          "type": "string"
        }
      ],
      "name": "addGolonganDarah",
      "outputs": [],
      "stateMutability": "nonpayable",
      "type": "function"
    },
    {
      "inputs": [],
      "name": "getGolonganDarahCount",
      "outputs": [
        {
          "internalType": "uint256",
          "name": "",
          "type": "uint256"
        }
      ],
      "stateMutability": "view",
      "type": "function"
    },
    {
      "inputs": [
        {
          "internalType": "uint256",
          "name": "_index",
          "type": "uint256"
        }
      ],
      "name": "getGolonganDarah",
      "outputs": [
        {
          "internalType": "address",
          "name": "",
          "type": "address"
        },
        {
          "internalType": "string",
          "name": "",
          "type": "string"
        },
        {
          "internalType": "string",
          "name": "",
          "type": "string"
        },
        {
          "internalType": "string",
          "name": "",
          "type": "string"
        }
      ],
      "stateMutability": "view",
      "type": "function"
    }
  ],
  "bytecode": "0x608060405234801561001057600080fd5b50610e75806100206000396000f3fe608060405234801561001057600080fd5b506004361061004c5760003560e01c8063143171ec146100515780635187efcb1461006d578063cb501c1d1461008b578063e3fbf802146100be575b600080fd5b61006b6004803603810190610066919061090e565b6100f1565b005b610075610316565b6040516100829190610c71565b60405180910390f35b6100a560048036038101906100a091906109a5565b610322565b6040516100b59493929190610b4b565b60405180910390f35b6100d860048036038101906100d391906109a5565b6105f6565b6040516100e89493929190610b4b565b60405180910390f35b6000835111610135576040517f08c379a000000000000000000000000000000000000000000000000000000000815260040161012c90610bf1565b60405180910390fd5b6000825111610179576040517f08c379a000000000000000000000000000000000000000000000000000000000815260040161017090610c11565b60405180910390fd5b60008151116101bd576040517f08c379a00000000000000000000000000000000000000000000000000000000081526004016101b490610c51565b60405180910390fd5b600060405180608001604052803373ffffffffffffffffffffffffffffffffffffffff16815260200185815260200184815260200183815250908060018154018082558091505060019003906000526020600020906004020160009091909190915060008201518160000160006101000a81548173ffffffffffffffffffffffffffffffffffffffff021916908373ffffffffffffffffffffffffffffffffffffffff16021790555060208201518160010190805190602001906102829291906107ee565b50604082015181600201908051906020019061029f9291906107ee565b5060608201518160030190805190602001906102bc9291906107ee565b5050503373ffffffffffffffffffffffffffffffffffffffff167fc532747525768098734c3e7eecacd72b508a236b13faca17a200fc5bba5daa4d84848460405161030993929190610ba5565b60405180910390a2505050565b60008080549050905090565b600060608060606000805490508510610370576040517f08c379a000000000000000000000000000000000000000000000000000000000815260040161036790610c31565b60405180910390fd5b60008086815481106103ab577f4e487b7100000000000000000000000000000000000000000000000000000000600052603260045260246000fd5b90600052602060002090600402016040518060800160405290816000820160009054906101000a900473ffffffffffffffffffffffffffffffffffffffff1673ffffffffffffffffffffffffffffffffffffffff1673ffffffffffffffffffffffffffffffffffffffff16815260200160018201805461042a90610d87565b80601f016020809104026020016040519081016040528092919081815260200182805461045690610d87565b80156104a35780601f10610478576101008083540402835291602001916104a3565b820191906000526020600020905b81548152906001019060200180831161048657829003601f168201915b505050505081526020016002820180546104bc90610d87565b80601f01602080910402602001604051908101604052809291908181526020018280546104e890610d87565b80156105355780601f1061050a57610100808354040283529160200191610535565b820191906000526020600020905b81548152906001019060200180831161051857829003601f168201915b5050505050815260200160038201805461054e90610d87565b80601f016020809104026020016040519081016040528092919081815260200182805461057a90610d87565b80156105c75780601f1061059c576101008083540402835291602001916105c7565b820191906000526020600020905b8154815290600101906020018083116105aa57829003601f168201915b505050505081525050905080600001518160200151826040015183606001519450945094509450509193509193565b6000818154811061060657600080fd5b90600052602060002090600402016000915090508060000160009054906101000a900473ffffffffffffffffffffffffffffffffffffffff169080600101805461064f90610d87565b80601f016020809104026020016040519081016040528092919081815260200182805461067b90610d87565b80156106c85780601f1061069d576101008083540402835291602001916106c8565b820191906000526020600020905b8154815290600101906020018083116106ab57829003601f168201915b5050505050908060020180546106dd90610d87565b80601f016020809104026020016040519081016040528092919081815260200182805461070990610d87565b80156107565780601f1061072b57610100808354040283529160200191610756565b820191906000526020600020905b81548152906001019060200180831161073957829003601f168201915b50505050509080600301805461076b90610d87565b80601f016020809104026020016040519081016040528092919081815260200182805461079790610d87565b80156107e45780601f106107b9576101008083540402835291602001916107e4565b820191906000526020600020905b8154815290600101906020018083116107c757829003601f168201915b5050505050905084565b8280546107fa90610d87565b90600052602060002090601f01602090048101928261081c5760008555610863565b82601f1061083557805160ff1916838001178555610863565b82800160010185558215610863579182015b82811115610862578251825591602001919060010190610847565b5b5090506108709190610874565b5090565b5b8082111561088d576000816000905550600101610875565b5090565b60006108a461089f84610cbd565b610c8c565b9050828152602081018484840111156108bc57600080fd5b6108c7848285610d45565b509392505050565b600082601f8301126108e057600080fd5b81356108f0848260208601610891565b91505092915050565b60008135905061090881610e28565b92915050565b60008060006060848603121561092357600080fd5b600084013567ffffffffffffffff81111561093d57600080fd5b610949868287016108cf565b935050602084013567ffffffffffffffff81111561096657600080fd5b610972868287016108cf565b925050604084013567ffffffffffffffff81111561098f57600080fd5b61099b868287016108cf565b9150509250925092565b6000602082840312156109b757600080fd5b60006109c5848285016108f9565b91505092915050565b6109d781610d09565b82525050565b60006109e882610ced565b6109f28185610cf8565b9350610a02818560208601610d54565b610a0b81610e17565b840191505092915050565b6000610a23601783610cf8565b91507f4e616d6120746964616b20626f6c6568206b6f736f6e670000000000000000006000830152602082019050919050565b6000610a63601b83610cf8565b91507f4e6f6d6f7220485020746964616b20626f6c6568206b6f736f6e6700000000006000830152602082019050919050565b6000610aa3601383610cf8565b91507f496e646578206f7574206f6620626f756e6473000000000000000000000000006000830152602082019050919050565b6000610ae3602183610cf8565b91507f476f6c6f6e67616e20646172616820746964616b20626f6c6568206b6f736f6e60008301527f67000000000000000000000000000000000000000000000000000000000000006020830152604082019050919050565b610b4581610d3b565b82525050565b6000608082019050610b6060008301876109ce565b8181036020830152610b7281866109dd565b90508181036040830152610b8681856109dd565b90508181036060830152610b9a81846109dd565b905095945050505050565b60006060820190508181036000830152610bbf81866109dd565b90508181036020830152610bd381856109dd565b90508181036040830152610be781846109dd565b9050949350505050565b60006020820190508181036000830152610c0a81610a16565b9050919050565b60006020820190508181036000830152610c2a81610a56565b9050919050565b60006020820190508181036000830152610c4a81610a96565b9050919050565b60006020820190508181036000830152610c6a81610ad6565b9050919050565b6000602082019050610c866000830184610b3c565b92915050565b6000604051905081810181811067ffffffffffffffff82111715610cb357610cb2610de8565b5b8060405250919050565b600067ffffffffffffffff821115610cd857610cd7610de8565b5b601f19601f8301169050602081019050919050565b600081519050919050565b600082825260208201905092915050565b6000610d1482610d1b565b9050919050565b600073ffffffffffffffffffffffffffffffffffffffff82169050919050565b6000819050919050565b82818337600083830152505050565b60005b83811015610d72578082015181840152602081019050610d57565b83811115610d81576000848401525b50505050565b60006002820490506001821680610d9f57607f821691505b60208210811415610db357610db2610db9565b5b50919050565b7f4e487b7100000000000000000000000000000000000000000000000000000000600052602260045260246000fd5b7f4e487b7100000000000000000000000000000000000000000000000000000000600052604160045260246000fd5b6000601f19601f8301169050919050565b610e3181610d3b565b8114610e3c57600080fd5b5056fea2646970667358221220ac6f4fc4323b4da4b41fcc4fb85742f360e3077590f2c2429f50688a3da78fb264736f6c63430008000033",
  "immutableReferences": {},
  "source": "// SPDX-License-Identifier: MIT\npragma solidity ^0.8.0;\n\ncontract GolDarah {\n    struct GolDarahData {\n        address sender;\n        string name;\n        string phone;\n        string bloodType;\n    }\n\n    GolDarahData[] public golonganDarahRecords;\n\n    event GolonganDarahAdded(address indexed sender, string name, string phone, string bloodType);\n\n    // Fungsi untuk menambahkan golongan darah\n    function addGolonganDarah(string memory _name, string memory _phone, string memory _bloodType) public {\n        require(bytes(_name).length > 0, \"Nama tidak boleh kosong\");\n        require(bytes(_phone).length > 0, \"Nomor HP tidak boleh kosong\");\n        require(bytes(_bloodType).length > 0, \"Golongan darah tidak boleh kosong\");\n\n        golonganDarahRecords.push(GolDarahData(msg.sender, _name, _phone, _bloodType));\n        emit GolonganDarahAdded(msg.sender, _name, _phone, _bloodType);\n    }\n\n    // Mendapatkan jumlah data golongan darah\n    function getGolonganDarahCount() public view returns (uint) {\n        return golonganDarahRecords.length;\n    }\n\n    // Mendapatkan data golongan darah berdasarkan indeks\n    function getGolonganDarah(uint _index) public view returns (address, string memory, string memory, string memory) {\n        require(_index < golonganDarahRecords.length, \"Index out of bounds\");\n        GolDarahData memory data = golonganDarahRecords[_index];\n        return (data.sender, data.name, data.phone, data.bloodType);\n    }\n}\n",
  "sourcePath": "D:\\Kuliah\\Materi semester 7\\Blockchain\\Tubes\\Goldar\\backend\\contracts\\goldarah.sol",
  "compiler": {
    "name": "solc",
    "version": "0.8.0+commit.c7dfd78e.Emscripten.clang"
  },
  "schemaVersion": "3.4.16",
  "updatedAt": "2024-12-11T02:20:46.846Z",
  "devdoc": {
    "kind": "dev",
    "methods": {},
    "version": 1
  },
  "userdoc": {
    "kind": "user",
    "methods": {},
    "version": 1
  }
}